:020000040000fa
:080000000002040000000000f2
:020000040000fa
:04000800c80200002a
:020000040000fa
:04000c00c802000026
:020000040000fa
:04001000c802000022
:020000040000fa
:04001400c80200001e
:020000040000fa
:04001800c80200001a
:020000040000fa
:04001c00c802000016
:020000040000fa
:04002000c802000012
:020000040000fa
:04002400c80200000e
:020000040000fa
:04002800c80200000a
:020000040000fa
:04002c00c802000006
:020000040000fa
:04003000c802000002
:020000040000fa
:04003400060d0000b5
:020000040000fa
:04003800c8020000fa
:020000040000fa
:04003c00c8020000f6
:020000040000fa
:04004000c8020000f2
:020000040000fa
:04004400c8020000ee
:020000040000fa
:04004800c8020000ea
:020000040000fa
:04004c00c8020000e6
:020000040000fa
:04005000c8020000e2
:020000040000fa
:04005400c8020000de
:020000040000fa
:04005800c8020000da
:020000040000fa
:04005c00c8020000d6
:020000040000fa
:04006000c8020000d2
:020000040000fa
:04006400c8020000ce
:020000040000fa
:04006800c8020000ca
:020000040000fa
:04006c00c8020000c6
:020000040000fa
:04007000c8020000c2
:020000040000fa
:04007400c8020000be
:020000040000fa
:04007800c8020000ba
:020000040000fa
:04007c00c8020000b6
:020000040000fa
:04008000c8020000b2
:020000040000fa
:04008400c8020000ae
:020000040000fa
:04008800c8020000aa
:020000040000fa
:04008c00c8020000a6
:020000040000fa
:04009000c8020000a2
:020000040000fa
:04009400c80200009e
:020000040000fa
:04009800c80200009a
:020000040000fa
:04009c00c802000096
:020000040000fa
:0400a000c802000092
:020000040000fa
:0400a400c80200008e
:020000040000fa
:0400a800c80200008a
:020000040000fa
:0400ac00c802000086
:020000040000fa
:0400b000c802000082
:020000040000fa
:0400b400c80200007e
:020000040000fa
:0400b800c80200007a
:020000040000fa
:0400bc00c802000076
:020000040000fa
:0400c000c802000072
:020000040000fa
:0400c400c80200006e
:020000040000fa
:0400c800c80200006a
:020000040000fa
:0400cc00c802000066
:020000040000fa
:0400d000c802000062
:020000040000fa
:0400d400c80200005e
:020000040000fa
:0400d800c80200005a
:020000040000fa
:0400dc00c802000056
:020000040000fa
:0400e000c802000052
:020000040000fa
:0400e400c80200004e
:020000040000fa
:0400e800c80200004a
:020000040000fa
:0400ec00c802000046
:020000040000fa
:0400f000c802000042
:020000040000fa
:0400f400c80200003e
:020000040000fa
:0400f800c80200003a
:020000040000fa
:0400fc00c802000036
:020000040000fa
:04010000c802000031
:020000040000fa
:04010400c80200002d
:020000040000fa
:04010800c802000029
:020000040000fa
:04010c00c802000025
:020000040000fa
:04011000c802000021
:020000040000fa
:04011400c80200001d
:020000040000fa
:04011800c802000019
:020000040000fa
:04011c00c802000015
:020000040000fa
:04012000c802000011
:020000040000fa
:04012400c80200000d
:020000040000fa
:04012800c802000009
:020000040000fa
:04012c00c802000005
:020000040000fa
:04013000c802000001
:020000040000fa
:04013400c8020000fd
:020000040000fa
:04013800c8020000f9
:020000040000fa
:04013c00c8020000f5
:020000040000fa
:04014000c8020000f1
:020000040000fa
:04014400c8020000ed
:020000040000fa
:04014800c8020000e9
:020000040000fa
:04014c00c8020000e5
:020000040000fa
:04015000c8020000e1
:020000040000fa
:04015400c8020000dd
:020000040000fa
:04015800c8020000d9
:020000040000fa
:04015c00c8020000d5
:020000040000fa
:04016000c8020000d1
:020000040000fa
:04016400c8020000cd
:020000040000fa
:04020800c802000028
:020000040000fa
:04020c00c802000024
:020000040000fa
:04021000c802000020
:020000040000fa
:04021400c80200001c
:020000040000fa
:04021800c802000018
:020000040000fa
:04021c00c802000014
:020000040000fa
:04022000c802000010
:020000040000fa
:04022400c80200000c
:020000040000fa
:04022800c802000008
:020000040000fa
:04022c00c802000004
:020000040000fa
:04023000c802000000
:020000040000fa
:04023400c8020000fc
:020000040000fa
:04023800c8020000f8
:020000040000fa
:04023c00c8020000f4
:020000040000fa
:04024000c8020000f0
:020000040000fa
:04024400c8020000ec
:020000040000fa
:04024800c8020000e8
:020000040000fa
:04024c00c8020000e4
:020000040000fa
:04025000c8020000e0
:020000040000fa
:04025400c8020000dc
:020000040000fa
:04025800c8020000d8
:020000040000fa
:04025c00c8020000d4
:020000040000fa
:04026000c8020000d0
:020000040000fa
:04026400c8020000cc
:020000040000fa
:04026800c8020000c8
:020000040000fa
:04026c00c8020000c4
:020000040000fa
:04027000c8020000c0
:020000040000fa
:04027400c8020000bc
:020000040000fa
:04027800c8020000b8
:020000040000fa
:04027c00c8020000b4
:020000040000fa
:04028000c8020000b0
:020000040000fa
:04028400c8020000ac
:020000040000fa
:04028800c8020000a8
:020000040000fa
:04028c00c8020000a4
:020000040000fa
:04029000c8020000a0
:020000040000fa
:04029400c80200009c
:020000040000fa
:04029800c802000098
:020000040000fa
:04029c00c802000094
:020000040000fa
:0402a000c802000090
:020000040000fa
:0402a400c80200008c
:020000040000fa
:0402a800c802000088
:020000040000fa
:0402ac00c802000084
:020000040000fa
:0402b000c802000080
:020000040000fa
:0402b400c80200007c
:020000040000fa
:0402b800c802000078
:020000040000fa
:0402bc00c802000074
:020000040000fa
:0402c000c802000070
:020000040000fa
:0402c400c80200006c
:020000040000fa
:0402c800c802000068
:020000040000fa
:0402cc00c802000064
:020000040000fa
:0402d000c802000060
:020000040000fa
:0402d400c80200005c
:020000040000fa
:0402d800c802000058
:020000040000fa
:0402dc00c802000054
:020000040000fa
:0402e000c802000050
:020000040000fa
:0402e400c80200004c
:020000040000fa
:0402e800c802000048
:020000040000fa
:0402ec00c802000044
:020000040000fa
:0402f000c802000040
:020000040000fa
:0402f400c80200003c
:020000040000fa
:0402f800c802000038
:020000040000fa
:0402fc00c802000034
:020000040000fa
:04030000c80200002f
:020000040000fa
:04030400c80200002b
:020000040000fa
:04030800c802000027
:020000040000fa
:04030c00c802000023
:020000040000fa
:04031000c80200001f
:020000040000fa
:04031400c80200001b
:020000040000fa
:04031800c802000017
:020000040000fa
:04031c00c802000013
:020000040000fa
:04032000c80200000f
:020000040000fa
:04032400c80200000b
:020000040000fa
:04032800c802000007
:020000040000fa
:04032c00c802000003
:020000040000fa
:04033000c8020000ff
:020000040000fa
:04033400c8020000fb
:020000040000fa
:04033800c8020000f7
:020000040000fa
:04033c00c8020000f3
:020000040000fa
:04034000c8020000ef
:020000040000fa
:04034400c8020000eb
:020000040000fa
:04034800c8020000e7
:020000040000fa
:04034c00c8020000e3
:020000040000fa
:04035000c8020000df
:020000040000fa
:04035400c8020000db
:020000040000fa
:04035800c8020000d7
:020000040000fa
:04035c00c8020000d3
:020000040000fa
:04036000c8020000cf
:020000040000fa
:04036400c8020000cb
:020000040000fa
:100400002f8520000e7f24000e01880000000000d0
:10041000000020000000e000020032000001200087
:100420002002880014000700820007000000e0009e
:1004300003003a0060d220000100200002003700d3
:100440000000200001002000810f70000100320038
:1004500014000700000020000000e000020032004d
:100460000000020000000000320602000000000050
:100470000040da000000fe004440a90020002000f7
:100480000000e0000300320000002000a00188000e
:100490004440a800000006008a1f78008b1f7800e7
:1004a0000000060091018800800478000000eb0045
:1004b0001a003700e284440032a0b4009905ba0063
:1004c000e284440032a0b4009906ba00e2844400f9
:1004d00032a0b4000006eb00476fde00fd07b2005b
:1004e000636ce10003003a00ebff07000000eb0043
:1004f0000a003700606ce10004003a00005deb0088
:100500008b05e900fdff3e00040037006168e10053
:10051000010032000086eb000b00070019c7ba008b
:100520001905ba000e04e00003003a000a00e000da
:10053000e0ff3a0000000600fe07b2009e018800be
:100540008a047800f5ff3700395dba008b05e900b1
:100550000c003200295dba008b05e900080032006a
:100560000c00e00003003a00e284440032a0b40032
:10057000f5ff370019ddba008b05e900faff3a00f4
:100580008904e800e184440032a0b40000000600c1
:100590000040da000000fe00641988008719880016
:1005a00062026000931988002219880011198800de
:1005b00000198800d0ff2f002003b6000000720051
:1005c0000019880000000600013020000080fb00b8
:1005d000000040006100780000000600301988002b
:1005e00041198800000006008460a900e70060004f
:1005f000f2ff2800cc08dd00230580000301610024
:10060000680060000281700071ff2f0022058800e1
:10061000a20480008280600081007000a104880034
:10062000000006000021ef00110888002008880063
:10063000000006000000050003f0a200889fbe0035
:100640008a9fbe008c1f7800ca000700d1003300cb
:100650006450e1004f0032006420e100520032009b
:1006600003826c0007003b000905d0000306d000a0
:10067000820f54000c065d000200390002003200b7
:1006800089017800030678008582550004003d004a
:100690000003fd008103fd008502ea008b85420016
:1006a000840f720002003b0060001000e080180020
:1006b0006011b8000005eb007a28e1000a0039005b
:1006c00006007800c75ddd00f707b200878075007f
:1006d0002d003700828171000a01780061056000f9
:1006e0008180d1000080d3008502e900f9ff3b0042
:1006f000060440008784480002003b0060041400a8
:10070000e0841c000988a300070032008a81710080
:1007100082817100610164008904d1000884d300e2
:100720008b05e800170037000978a30013003a0092
:100730000b00e000130034008b05e90008044400be
:1007400089844c000a4474000978a3000d003a0023
:100750000b00e000070034008b05e90008044400aa
:1007600089844c0001003a000b0020000978a300a6
:10077000f7ff32000001eb000200370082817100b8
:100780000a017800550007000cf0a70001f0a00056
:10079000890037006420e10002003a00838f6c007a
:1007a000890033000801be000200be00820037004d
:1007b000889fbe008a9fbe008c1f78006d000700d6
:1007c0007400330003866c006450e1002e00320098
:1007d0006420e100330032006150e1002f0032005c
:1007e0006120e1003100320085855500eb07b00043
:1007f0000900200008042000050037000804440018
:1008000089844c000a0031000603430087834b00b3
:100810000001530081815b00f8ff33000203be003a
:100820000800a0000804440089844c00f6ff390049
:10083000c639dd008301730001003200130020007f
:100840008904d1000884d3000998a3000500320070
:100850000800a7000300a0008904d1000884d30089
:100860008b05e8008904d1000884d3000001eb0067
:100870000281d2001900070001f0a1000cf0a700ce
:1008800001f0a0004c0037006420e1004e0032006f
:100890000801be000200be00f7ff37006120e10042
:1008a000490032006000b800f3ff3700000020006c
:1008b00001f82700f0ff3700f4ff2f007900370020
:1008c0004f89de0082017800910037006011b80086
:1008d0009f003700040020007200370081002000d4
:1008e000618055000b003d000b00200061fe2f00d1
:1008f0000100e1001d00340082817100610164008b
:100900008904d1000884d3000000e800faff3a000f
:1009100071002000610064000300700002006000ac
:100920000900320061044400e0844c000988a500fd
:10093000050032008b05e8006808e10002003a007b
:100940008904d1000884d300f20f20000258e1008e
:1009500005003d00c75ddd00f907b2008980750024
:1009600008007800000006000bf827008b007800d4
:10097000000005000004be00a40007000003be0044
:100980000405be000200be00a0000700844f7500f1
:10099000000006000200be006450e10005003600c1
:1009a0006420e100020036000968a30001003a005b
:1009b0000800be000160a0004f0678004f05be0091
:1009c0004f04be0000000600f0ff2f00f1ff2700db
:1009d000f9ff3700889fbe008a9fbe008c1f7800f9
:1009e000e4ff0700ebff330003866c006450e10076
:1009f000240032006420e100270032006150e10051
:100a0000220032006120e100210032008b8542008b
:100a1000eb07b1000134b800003ab8000804420006
:100a200089844a00013ab8000030b800888040004c
:100a300009014a00040033000000400081804800a2
:100a4000020149008b05e900c909dd00830170003e
:100a50000100320013002000c814de004814dd003d
:100a60004709de001200b200c808de0008847000ea
:100a70009aff070001f0a1000cf0a70001f0a00010
:100a8000cdff37006120e100cfff32000801be003a
:100a90000200be00f7ff37006150e100fcff3a00a2
:100aa000c9ff3700889fbe008a9fbe00841f780060
:100ab000b0ff07004f00780011003300f0ff2f0057
:100ac000838f6c0006003b00040565000a00a70048
:100ad0000800370009f0a6001000200008003700c9
:100ae000820f5400838f5c00030039001000200047
:100af00001003e000000200009f0a7000000ea000d
:100b00004f05be004f04be000000e00000000600dc
:100b1000881f7800030478000300e00007003d0010
:100b200060001000e080180060011900e0811900e9
:100b300002003b0001f02d00030037000400070015
:100b400008f0a70001f0a0004f04780000000600a4
:100b5000889fbe008a9fbe00008270000402710060
:100b600004827100260032000004be000200be00b4
:100b70006011b8006b092000950220000182cf00af
:100b80000a0039000541b1000082cf00070039009a
:100b90000541b1000982cf00040039000541b100d0
:100ba0000882cf00010039000541b1000542520022
:100bb000120032000a003b00828171006101640072
:100bc0008100d1000080d3008984d3000884d30041
:100bd0008b05e8000442e800f7ff3a000700370001
:100be0000804440089844c000000480081804800cb
:100bf0008b05e9000442e900f9ff3a0037ff0700de
:100c00004f05be004f04be0000000600c70ade000c
:100c1000f107b200f50fb20008003200e1cf420048
:100c2000020032000170a00024000500810f700056
:100c3000010032000408050044000500810f700027
:100c400002003a00140005008502e900000040009f
:100c500081c04800fcff3b000170a000240005009b
:020000040000fa
:040c6000010000008f
:020000040000fa
:100c64000000fa0080022000303a8800213a800017
:100c7400f0f32f0000806000203a8800213a8000c1
:100c840000fe2f0000806000203a88000000000071
:100c9400113a800000022000008060000000e000a3
:100ca400fbff32003700070047030700f000200075
:100cb400801f7800e0002000801f7800d70020000b
:100cc400c6002000150020000002eb0023002000d5
:100cd400b2002000a1002000800c20004600070084
:100ce400e487570040012000d2000700fdff3700d1
:100cf4001000fa00889fbe00008fbe0022079800f3
:100d04003307980044079800550798006607980031
:100d1400770798006e019000fe0190003eb897009e
:100d2400ceb8970043fe07000004be002e019000d9
:100d3400be0190004e009000de0090003dfe0700d2
:100d44000001be000800be0098fe07000004be00bb
:100d54002e019000be0190001e00be0035fe07006b
:100d64000001be000800be0019ff07006e019000dc
:100d7400fe01900030fe07004f04be000080fa0020
:100d8400000006000000fa00c002a8000080fa007b
:100d9400000006000000fa008003eb000003eb00f3
:100da4008002eb00e4ff2f0083ff2f000081eb00a3
:100db400e1bf2000f0cf2700f6fd070001f62f0069
:100dc4000000eb0004fe070021e3a800000000007f
:100dd40000198000610060000000e000fcff3200a8
:100de4000040eb00f7fd07007042880021e3a900f2
:100df4000080fa00000006001000fa00000f7800de
:100e040011079800220798003307980044079800b8
:100e14005507980066079800770798009e007800a9
:100e2400714088009e00900091408800ae009000c0
:100e3400a14088003e009000cf80de009ffe0700a6
:100e4400b0408800c14088001a28ef00ce0090000e
:100e5400e14088005e0090003e0007006000b8009a
:100e640010418800214188006000b800b04188002a
:100e7400c14188006000b8003041880041418800c9
:100e84002a28ef002c28ef0070408000cf80de007d
:100e94008afe07000002be0030418000414180000c
:100ea4000001be000400be00c9fe07000001be0030
:100eb40000402200419724003cfe0700f0408800d7
:100ec40001418800fe00900081418800ceb897005f
:100ed40091418800beb89700a14188003e28ef00e8
:100ee40010002000e04188004228ef00100020009c
:100ef400004288004428ef004628ef001142800099
:100f0400a040800075010700104280008000780036
:100f14006e00900071010700f041800080007800ad
:100f24006e009000a1000700114280008041800003
:100f34006a010700114280009041800067010700a8
:100f440011428000a0418000640107000080fa0083
:100f5400000006000800fa00300798000000eb00cb
:100f6400000f78000000eb00100798000000eb0071
:100f7400200798003e009000e20f50001400320059
:100f8400e20f500005003e000000e00008003200bf
:100f9400e10f5000090032001c003700e30f50003d
:100fa4000e003200e40f50000f003200170037002b
:100fb40010002000d04188001400370020002000d9
:100fc400d041880010002000200798000f0037004f
:100fd40040002000d04188000c0037008000200031
:100fe400d04188000900370000012000d04188006a
:100ff40010002000000f7800100020001007980057
:101004001000200020079800000000000080fa0073
:10101400000006000400fa00008fbe001e00be009f
:1010240026fe070010418800214188000080fa0054
:10103400000006000200fa00000f78001e0078008d
:1010440000f0a7000000ea00015327001f0007007a
:10105400cf80de0019fe070030418800414188003e
:1010640071408000d04180000088b9000000780001
:10107400cf80de0011fe07000002be003041800078
:10108400414180000001be000400be0050fe070084
:101094000001be000040220041972400c3fd070068
:1010a400f0408800014188001e0078000000e00044
:1010b40002003d001a28ef00020037001000200053
:1010c400d04088000080fa00000006000400fa0006
:1010d400000f7800110798001e0090009e00780011
:1010e400808f500002003d001e0078000100370090
:1010f4001e0090000080fa00000006000200fa00c2
:10110400000f78001e0078000000e00002003d009f
:101114001e00ea00010037001e0078000080fa007b
:10112400000006000200fa00000f78009e0078001c
:10113400e14088000080fa00000006000200fa0086
:10114400e1418000a0408000180007002042800098
:1011540031428000000f78000100370000000000d9
:101164001e80e8006101b900204280003142800005
:10117400800f5100818f5900f8ff3100f141800048
:10118400a0408000090007000080fa00000006006b
:101194000200fa00000f7800904080009e00780062
:1011a400020007000080fa00000006000400fa00b4
:1011b400000f7800110798001e0078008000eb00f3
:1011c400f200200003002000820f5000838f58009b
:1011d400c0003e00006001000f0037001800370017
:1011e400220037002c00370036003700400037005b
:1011f4004a003700540037005e00370068003700ab
:10120400720037007c0037008600370090003700fa
:101214009a003700a40037001e00900000407800b8
:10122400614060000080fb00610060006116800086
:101234000100a1000100700060168800a5003700bd
:101244001e00900000407800614060000080fb00b8
:101254006100600000004000611680000110a100e0
:1012640001007000601688009a0037001e0090008c
:1012740000407800614060000080fb006100600075
:101284004200dd00611680000120a1000100700011
:10129400601688008f0037001e0090000040780020
:1012a400614060000080fb00610060004300dd00dd
:1012b400611680000130a1000100700060168800f2
:1012c400840037001e0090000040780061406000f8
:1012d4000080fb00610060004400dd0061168000b6
:1012e4000140a100010070006016880079003700f9
:1012f4001e00900000407800614060000080fb0008
:10130400610060004500dd00611680000150a1000d
:1013140001007000601688006e0037001e00900007
:1013240000407800614060000080fb0061006000c4
:101334004600dd00611680000160a100010070001c
:1013440060168800630037001e009000004078009b
:10135400614060000080fb00610060004700dd0028
:10136400611680000170a100010070006016880001
:10137400580037001e009000004078006140600073
:101384000080fb00610060004800dd006116800001
:101394000180a10001007000601688004d00370034
:1013a4001e00900000407800614060000080fb0057
:1013b400610060004900dd00611680000190a10019
:1013c4000100700060168800420037001e00900083
:1013d40000407800614060000080fb006100600014
:1013e4004a00dd006116800001a0a1000100700028
:1013f40060168800370037001e0090000040780017
:10140400614060000080fb00610060004b00dd0073
:101414006116800001b0a100010070006016880010
:101424002c0037001e0090000040780061406000ee
:101434000080fb00610060004c00dd00611680004c
:1014440001c0a1000100700060168800210037006f
:101454001e00900000407800614060000080fb00a6
:10146400610060004d00dd006116800001d0a10024
:101474000100700060168800160037001e009000fe
:1014840000407800614060000080fb006100600063
:101494004e00dd006116800001e0a1000100700033
:1014a400601688000b0037001e0090000040780092
:1014b400614060000080fb004f00dd006216800088
:1014c400f1ff2700810061000100700060168800b0
:1014d400000000000080fa00000006000400fa008a
:1014e400000f7800110798001e0078008000eb00c0
:1014f400f200200003002000820f5000838f580068
:10150400c0003e00006001000f00370018003700e3
:10151400220037002c003700360037004000370027
:101524004a003700540037005e0037006800370077
:10153400720037007c0037008600370090003700c7
:101544009a003700a40037001e0090000040780085
:10155400614060000080fb00610060004116800073
:101564000100a1000100700040168800a5003700aa
:101574001e00900000407800614060000080fb0085
:101584006100600000004000411680000110a100cd
:1015940001007000401688009a0037001e00900079
:1015a40000407800614060000080fb006100600042
:1015b4004200dd00411680000120a10001007000fe
:1015c400401688008f0037001e009000004078000d
:1015d400614060000080fb00610060004300dd00aa
:1015e400411680000130a1000100700040168800ff
:1015f400840037001e0090000040780061406000c5
:101604000080fb00610060004400dd0041168000a2
:101614000140a100010070004016880079003700e5
:101624001e00900000407800614060000080fb00d4
:10163400610060004500dd00411680000150a100fa
:1016440001007000401688006e0037001e009000f4
:1016540000407800614060000080fb006100600091
:101664004600dd00411680000160a1000100700009
:1016740040168800630037001e0090000040780088
:10168400614060000080fb00610060004700dd00f5
:10169400411680000170a10001007000401688000e
:1016a400580037001e009000004078006140600040
:1016b4000080fb00610060004800dd0041168000ee
:1016c4000180a10001007000401688004d00370021
:1016d4001e00900000407800614060000080fb0024
:1016e400610060004900dd00411680000190a10006
:1016f4000100700040168800420037001e00900070
:1017040000407800614060000080fb0061006000e0
:101714004a00dd004116800001a0a1000100700014
:1017240040168800370037001e0090000040780003
:10173400614060000080fb00610060004b00dd0040
:101744004116800001b0a10001007000401688001d
:101754002c0037001e0090000040780061406000bb
:101764000080fb00610060004c00dd004116800039
:1017740001c0a1000100700040168800210037005c
:101784001e00900000407800614060000080fb0073
:10179400610060004d00dd004116800001d0a10011
:1017a4000100700040168800160037001e009000eb
:1017b40000407800614060000080fb006100600030
:1017c4004e00dd004116800001e0a1000100700020
:1017d400401688000b0037001e009000004078007f
:1017e400614060000080fb004f00dd004216800075
:1017f400f1ff27008100610001007000401688009d
:10180400000000000080fa00000006000000fa005a
:10181400889fbe00e04080000000e000130032001a
:101824006000b800b0418800c1418800d040800009
:101834000000e00003003200e10f50000600320017
:101844000a0037000000200001f82b001041880036
:1018540021418800050037000000200001f8230022
:1018640010418800214188000000000022428000cd
:1018740033428000504180006141800000005100eb
:101884008180590010fc07000002be00f040800077
:101894000141800018c0b3000001be000400be0076
:1018a40004fc07000000e00001003c000044eb00e1
:1018b4000804e0004100320014418000254180000a
:1018c400b0418000c14180000001be000400be00a0
:1018d40058fb07006011b800fdfb07000000e000a2
:1018e400360032001441800025418000b041800060
:1018f400c14180000001be000400be004dfb070092
:1019040018c0b3006011b800eafb07000000e00053
:1019140001003c000044eb000804e0001200320027
:101924000000eb001afe0700d041800011002000e7
:1019340000017800110009008200d800cf80de0089
:10194400defb07000002be00b0418000c141800000
:101954000001be000400be0037fb0700b041880050
:10196400c141880010003700b8418000c94180009f
:10197400d04180001100200000017800110009000e
:101984008200d800cf80de00ccfb07000001be003f
:101994000800be0027fb0700b0418800c141880051
:1019a40010002000fafd0700e4fd0700204280003b
:1019b4003142800050418800614188004f04be00dc
:1019c4000080fa00000006000000fa000000280071
:1019d400200888002005800000c0a00020058800a1
:1019e4006002200010088800100880008000780041
:1019f40090f82f000afb07000080eb00f9fa0700bb
:101a04000080fa0000000600809fbe003400f80049
:101a140000002000a00188000000fa00204280009d
:101a24003142800061004000e0804800204288008c
:101a3400314288008460a9000080fa003400f90073
:081a44004f00be000040060047
:020000040000fa
:101a4c0000080000500000000000000050080000da
:101a5c000200000002000000001000000000000066
:020000040000fa
:0200000401f009
:04000800ffff0000f6
:020000040000fa
:0200000401f009
:04000c00f9ff0000f8
:020000040000fa
:0200000401f009
:040010007dff000070
:020000040000fa
:0200000401f009
:040014007fff00006a
:00000001FF
