:020000040000fa
:080000000002040000000000f2
:020000040000fa
:04000800c80200002a
:020000040000fa
:04000c00c802000026
:020000040000fa
:04001000c802000022
:020000040000fa
:04001400c80200001e
:020000040000fa
:04001800c80200001a
:020000040000fa
:04001c00c802000016
:020000040000fa
:04002000c802000012
:020000040000fa
:04002400c80200000e
:020000040000fa
:04002800c80200000a
:020000040000fa
:04002c00c802000006
:020000040000fa
:04003000c802000002
:020000040000fa
:04003400e4050000df
:020000040000fa
:04003800c8020000fa
:020000040000fa
:04003c00c8020000f6
:020000040000fa
:04004000c8020000f2
:020000040000fa
:04004400c8020000ee
:020000040000fa
:04004800c8020000ea
:020000040000fa
:04004c00c8020000e6
:020000040000fa
:04005000c8020000e2
:020000040000fa
:04005400c8020000de
:020000040000fa
:04005800c8020000da
:020000040000fa
:04005c00c8020000d6
:020000040000fa
:04006000c8020000d2
:020000040000fa
:04006400c8020000ce
:020000040000fa
:04006800c8020000ca
:020000040000fa
:04006c00c8020000c6
:020000040000fa
:04007000c8020000c2
:020000040000fa
:04007400c8020000be
:020000040000fa
:04007800c8020000ba
:020000040000fa
:04007c00c8020000b6
:020000040000fa
:04008000c8020000b2
:020000040000fa
:04008400c8020000ae
:020000040000fa
:04008800c8020000aa
:020000040000fa
:04008c00c8020000a6
:020000040000fa
:04009000c8020000a2
:020000040000fa
:04009400c80200009e
:020000040000fa
:04009800c80200009a
:020000040000fa
:04009c00c802000096
:020000040000fa
:0400a000c802000092
:020000040000fa
:0400a400c80200008e
:020000040000fa
:0400a800c80200008a
:020000040000fa
:0400ac00c802000086
:020000040000fa
:0400b000c802000082
:020000040000fa
:0400b400c80200007e
:020000040000fa
:0400b800c80200007a
:020000040000fa
:0400bc00c802000076
:020000040000fa
:0400c000c802000072
:020000040000fa
:0400c400c80200006e
:020000040000fa
:0400c800c80200006a
:020000040000fa
:0400cc00c802000066
:020000040000fa
:0400d000c802000062
:020000040000fa
:0400d400c80200005e
:020000040000fa
:0400d800c80200005a
:020000040000fa
:0400dc00c802000056
:020000040000fa
:0400e000c802000052
:020000040000fa
:0400e400c80200004e
:020000040000fa
:0400e800c80200004a
:020000040000fa
:0400ec00c802000046
:020000040000fa
:0400f000c802000042
:020000040000fa
:0400f400c80200003e
:020000040000fa
:0400f800c80200003a
:020000040000fa
:0400fc00c802000036
:020000040000fa
:04010000c802000031
:020000040000fa
:04010400c80200002d
:020000040000fa
:04010800c802000029
:020000040000fa
:04010c00c802000025
:020000040000fa
:04011000c802000021
:020000040000fa
:04011400c80200001d
:020000040000fa
:04011800c802000019
:020000040000fa
:04011c00c802000015
:020000040000fa
:04012000c802000011
:020000040000fa
:04012400c80200000d
:020000040000fa
:04012800c802000009
:020000040000fa
:04012c00c802000005
:020000040000fa
:04013000c802000001
:020000040000fa
:04013400c8020000fd
:020000040000fa
:04013800c8020000f9
:020000040000fa
:04013c00c8020000f5
:020000040000fa
:04014000c8020000f1
:020000040000fa
:04014400c8020000ed
:020000040000fa
:04014800c8020000e9
:020000040000fa
:04014c00c8020000e5
:020000040000fa
:04015000c8020000e1
:020000040000fa
:04015400c8020000dd
:020000040000fa
:04015800c8020000d9
:020000040000fa
:04015c00c8020000d5
:020000040000fa
:04016000c8020000d1
:020000040000fa
:04016400c8020000cd
:020000040000fa
:04020800c802000028
:020000040000fa
:04020c00c802000024
:020000040000fa
:04021000c802000020
:020000040000fa
:04021400c80200001c
:020000040000fa
:04021800c802000018
:020000040000fa
:04021c00c802000014
:020000040000fa
:04022000c802000010
:020000040000fa
:04022400c80200000c
:020000040000fa
:04022800c802000008
:020000040000fa
:04022c00c802000004
:020000040000fa
:04023000c802000000
:020000040000fa
:04023400c8020000fc
:020000040000fa
:04023800c8020000f8
:020000040000fa
:04023c00c8020000f4
:020000040000fa
:04024000c8020000f0
:020000040000fa
:04024400c8020000ec
:020000040000fa
:04024800c8020000e8
:020000040000fa
:04024c00c8020000e4
:020000040000fa
:04025000c8020000e0
:020000040000fa
:04025400c8020000dc
:020000040000fa
:04025800c8020000d8
:020000040000fa
:04025c00c8020000d4
:020000040000fa
:04026000c8020000d0
:020000040000fa
:04026400c8020000cc
:020000040000fa
:04026800c8020000c8
:020000040000fa
:04026c00c8020000c4
:020000040000fa
:04027000c8020000c0
:020000040000fa
:04027400c8020000bc
:020000040000fa
:04027800c8020000b8
:020000040000fa
:04027c00c8020000b4
:020000040000fa
:04028000c8020000b0
:020000040000fa
:04028400c8020000ac
:020000040000fa
:04028800c8020000a8
:020000040000fa
:04028c00c8020000a4
:020000040000fa
:04029000c8020000a0
:020000040000fa
:04029400c80200009c
:020000040000fa
:04029800c802000098
:020000040000fa
:04029c00c802000094
:020000040000fa
:0402a000c802000090
:020000040000fa
:0402a400c80200008c
:020000040000fa
:0402a800c802000088
:020000040000fa
:0402ac00c802000084
:020000040000fa
:0402b000c802000080
:020000040000fa
:0402b400c80200007c
:020000040000fa
:0402b800c802000078
:020000040000fa
:0402bc00c802000074
:020000040000fa
:0402c000c802000070
:020000040000fa
:0402c400c80200006c
:020000040000fa
:0402c800c802000068
:020000040000fa
:0402cc00c802000064
:020000040000fa
:0402d000c802000060
:020000040000fa
:0402d400c80200005c
:020000040000fa
:0402d800c802000058
:020000040000fa
:0402dc00c802000054
:020000040000fa
:0402e000c802000050
:020000040000fa
:0402e400c80200004c
:020000040000fa
:0402e800c802000048
:020000040000fa
:0402ec00c802000044
:020000040000fa
:0402f000c802000040
:020000040000fa
:0402f400c80200003c
:020000040000fa
:0402f800c802000038
:020000040000fa
:0402fc00c802000034
:020000040000fa
:04030000c80200002f
:020000040000fa
:04030400c80200002b
:020000040000fa
:04030800c802000027
:020000040000fa
:04030c00c802000023
:020000040000fa
:04031000c80200001f
:020000040000fa
:04031400c80200001b
:020000040000fa
:04031800c802000017
:020000040000fa
:04031c00c802000013
:020000040000fa
:04032000c80200000f
:020000040000fa
:04032400c80200000b
:020000040000fa
:04032800c802000007
:020000040000fa
:04032c00c802000003
:020000040000fa
:04033000c8020000ff
:020000040000fa
:04033400c8020000fb
:020000040000fa
:04033800c8020000f7
:020000040000fa
:04033c00c8020000f3
:020000040000fa
:04034000c8020000ef
:020000040000fa
:04034400c8020000eb
:020000040000fa
:04034800c8020000e7
:020000040000fa
:04034c00c8020000e3
:020000040000fa
:04035000c8020000df
:020000040000fa
:04035400c8020000db
:020000040000fa
:04035800c8020000d7
:020000040000fa
:04035c00c8020000d3
:020000040000fa
:04036000c8020000cf
:020000040000fa
:04036400c8020000cb
:020000040000fa
:100400000f8120000e7f24000e01880000000000f4
:10041000000020000000e000020032000001200087
:100420002002880014000700840007000000e0009c
:1004300003003a00c06420000100200002003700e1
:100440000000200001002000810f70000100320038
:1004500014000700000020000000e000020032004d
:1004600000000200000000004a0502000000000039
:100470000040da000000fe004440a9000000200017
:100480000000e0000300320000002000a00188000e
:100490004440a800000006008a1f78008b1f7800e7
:1004a0000000060091018800800478000000eb0045
:1004b0001a003700e284440032a0b4009905ba0063
:1004c000e284440032a0b4009906ba00e2844400f9
:1004d00032a0b4000006eb00476fde00fd07b2005b
:1004e000636ce10003003a00ebff07000000eb0043
:1004f0000a003700606ce10004003a00005deb0088
:100500008b05e900fdff3e00040037006168e10053
:10051000010032000086eb000b00070019c7ba008b
:100520001905ba000e04e00003003a000a00e000da
:10053000e0ff3a0000000600fe07b2009e018800be
:100540008a047800f5ff3700395dba008b05e900b1
:100550000c003200295dba008b05e900080032006a
:100560000c00e00003003a00e284440032a0b40032
:10057000f5ff370019ddba008b05e900faff3a00f4
:100580008904e800e184440032a0b40000000600c1
:100590000040da000000fe00641988008719880016
:1005a00062026000931988002219880011198800de
:1005b00000198800d0ff2f002003b6000000720051
:1005c0000019880000000600013020000080fb00b8
:1005d000000040006100780000000600301988002b
:1005e00041198800000006008460a900e70060004f
:1005f000f2ff2800cc08dd00230580000301610024
:10060000680060000281700071ff2f0022058800e1
:10061000a20480008280600081007000a104880034
:10062000000006000021ef00110888002008880063
:100630000000060000088800000006000000050019
:10064000889fbe008a9fbe008c1f7800960007001e
:100650009d00330003866c006450e1002e003200e0
:100660006420e100330032006150e1002f003200cd
:100670006120e1003100320085855500eb07b000b4
:100680000900200008042000050037000804440089
:1006900089844c000a0031000603430087834b0025
:1006a0000001530081815b00f8ff33000203be00ac
:1006b0000800a0000804440089844c00f6ff3900bb
:1006c000c639dd00830173000100320013002000f1
:1006d0008904d1000884d3000998a30005003200e2
:1006e0000800a7000300a0008904d1000884d300fb
:1006f0008b05e8008904d1000884d3000001eb00d9
:100700000281d2002d00070001f0a1000cf0a7002b
:1007100001f0a000750037006420e100770032008e
:100720000801be000200be00f7ff37006120e100b3
:10073000720032006000b800f3ff370000002000b4
:1007400001f82700f0ff37000001be00410007005c
:100750000470a70003f0a10003f8a30013003a00ff
:100760006509b10010003200090035006928e10078
:1007700002003500010028000000050000004000d4
:10078000818048008502e900fcff3a000000060075
:10079000f88f4200050035008100d1000080d300b1
:1007a0008502e800fcff3a00000006008000eb0034
:1007b000000005006011b8008700370081002000ac
:1007c000618055000b003d000b00200061fe2f00f2
:1007d0000100e1001d0034008281710061016400ac
:1007e0008904d1000884d3000000e800faff3a0031
:1007f00071002000610064000300700002006000ce
:100800000900320061044400e0844c000988a5001e
:10081000050032008b05e8006808e10002003a009c
:100820008904d1000884d300f20f20000258e100af
:1008300005003d00c75ddd00f907b2008980750045
:1008400008007800000006000bf827008b007800f5
:1008500000000500c70ade00f107b200f50fb20084
:1008600008003200e1cf4200020032000170a00017
:1008700024000500810f700001003200040805000b
:1008800044000500810f700002003a0014000500ca
:100890008502e9000000400081c04800fcff3b00e9
:1008a0000170a000240005000004be00e9ff07005d
:1008b0000003be000405be000200be00e5ff070005
:1008c000844f7500000006000200be006450e10085
:1008d000050036006420e100020036000968a3002c
:1008e00001003a000800be000160a0004f06780039
:1008f0004f05be004f04be0000000600f0ff2f00b1
:10090000f1ff2700f9ff3700889fbe008a9fbe00d5
:100910008c1f7800e4ff0700ebff330003866c00b8
:100920006450e100240032006420e100270032001e
:100930006150e100220032006120e100210032001c
:100940008b854200eb07b1000134b800003ab800d3
:100950000804420089844a00013ab8000030b80017
:100960008880400009014a00040033000000400074
:1009700081804800020149008b05e900c909dd00ba
:10098000830170000100320013002000c814de0053
:100990004814dd004709de001200b200c808de007e
:1009a0000884700085ff070001f0a1000cf0a7008b
:1009b00001f0a000cdff37006120e100cfff320041
:1009c0000801be000200be00f7ff37006150e100e1
:1009d000fcff3a00c9ff3700889fbe008a9fbe0017
:1009e000008270000402710004827100260032004f
:1009f0000004be000200be006011b8006b092000b8
:100a0000950220000182cf000a0039000541b100a3
:100a10000082cf00070039000541b1000982cf00f4
:100a2000040039000541b1000882cf0001003900ff
:100a30000541b10005425200120032000a003b009d
:100a400082817100610164008100d1000080d300c7
:100a50008984d3000884d3008b05e8000442e800b1
:100a6000f7ff3a00070037000804440089844c006f
:100a700000004800818048008b05e9000442e9003d
:100a8000f9ff3a004dff07004f05be004f04be00be
:040a9000000006005c
:020000040000fa
:100a94000000fa0003000700080007000f00070029
:100aa400feff37000000fa00c002a800c022a80020
:100ab400c9a2a9000080fa00000006000000fa00a4
:100ac400f1ff200090f82f00d5fe07000080eb0016
:100ad400c4fe07000080fa00000006000000fa00cf
:100ae4008003eb000003eb008002eb00f4fe2f0018
:100af40083ff2f000081eb00e1bf2000f0cf27002f
:100b0400a4fe070041f62f000000eb00b2fe070030
:100b140021e3a800000000000019800061006000cb
:100b24000000e000fcff32000040eb00a5fe0700df
:100b3400002db1008000eb001dff07000200200023
:100b4400035824006fff07000200200033552400df
:100b5400bafe0700fbfe0700000078002040880072
:100b640021e3a9008003eb000003eb008002eb000b
:100b7400d4ff2f0083ff2f000081eb00e1bf200092
:100b8400f0cf270083fe070011f62f000000eb00d2
:100b940091fe070021e3a800000000000019800076
:100ba400610060000000e000fcff32000040eb0048
:100bb40084fe07006040880021e3a9000080fa0059
:100bc400000006003600f800809fbe00829fbe0031
:100bd400849fbe00869fbe003400f8000000200001
:100be400a00188000000fa009460a9004040800041
:100bf4000000e0000b003a00cda2a800210880000c
:100c0400f0fc2f00008060000040a0002008880055
:100c140020408000504088001000200040408800a0
:100c24001000370040408000e10f50000d003a00f2
:100c3400cda2a900714080002040800000805000b7
:100c440030408800304080005040880021088000f7
:100c5400f0fc2f00008060000040a0002008880005
:100c64000828ef005040800071fe07008460a9004e
:100c74009460a8000080fa003400f9004f03be001d
:100c84004f02be004f01be004f00be003600f90007
:040c94000040060016
:020000040000fa
:100c9800000800000e000000000000000e08000020
:100ca8000200000002000000001000000000000028
:020000040000fa
:0200000401f009
:04000c0078ff000079
:020000040000fa
:0200000401f009
:040010009bff000052
:020000040000fa
:0200000401f009
:0400140060ff000089
:020000040000fa
:0200000401f009
:04001800e8ff0000fd
:020000040000fa
:0200000401f009
:04001c00dfff000002
:00000001FF
